01:52:04.360371 IP ubuntu > 192.168.1.35: ICMP echo request, id 15, seq 1, length 64
	0x0000:  000c 2958 858f 000c 2927 87a7 0800 4500
	0x0010:  0054 26b3 4000 4001 9060 c0a8 0122 c0a8
	0x0020:  0123 0800 9861 000f 0001 b4dc 405f 0000
	0x0030:  0000 a67f 0500 0000 0000 1011 1213 1415
	0x0040:  1617 1819 1a1b 1c1d 1e1f 2021 2223 2425
	0x0050:  2627 2829 2a2b 2c2d 2e2f 3031 3233 3435
	0x0060:  3637
01:52:04.360685 ARP, Request who-has ubuntu tell 192.168.1.35, length 46
	0x0000:  ffff ffff ffff 000c 2958 858f 0806 0001
	0x0010:  0800 0604 0001 000c 2958 858f c0a8 0123
	0x0020:  0000 0000 0000 c0a8 0122 0000 0000 0000
	0x0030:  0000 0000 0000 0000 0000 0000
01:52:04.360696 ARP, Reply ubuntu is-at 00:0c:29:27:87:a7 (oui Unknown), length 28
	0x0000:  000c 2958 858f 000c 2927 87a7 0806 0001
	0x0010:  0800 0604 0002 000c 2927 87a7 c0a8 0122
	0x0020:  000c 2958 858f c0a8 0123
01:52:04.360717 ARP, Request who-has ubuntu tell 192.168.1.35, length 46
	0x0000:  ffff ffff ffff 000c 2958 858f 0806 0001
	0x0010:  0800 0604 0001 000c 2958 858f c0a8 0123
	0x0020:  0000 0000 0000 c0a8 0122 0000 0000 0000
	0x0030:  0000 0000 0000 0000 0000 0000
01:52:04.360720 ARP, Reply ubuntu is-at 00:0c:29:27:87:a7 (oui Unknown), length 28
	0x0000:  000c 2958 858f 000c 2927 87a7 0806 0001
	0x0010:  0800 0604 0002 000c 2927 87a7 c0a8 0122
	0x0020:  000c 2958 858f c0a8 0123
01:52:04.360912 IP 192.168.1.35 > ubuntu: ICMP echo reply, id 15, seq 1, length 64
	0x0000:  000c 2927 87a7 000c 2958 858f 0800 4500
	0x0010:  0054 6b66 0000 8001 4bad c0a8 0123 c0a8
	0x0020:  0122 0000 a061 000f 0001 b4dc 405f 0000
	0x0030:  0000 a67f 0500 0000 0000 1011 1213 1415
	0x0040:  1617 1819 1a1b 1c1d 1e1f 2021 2223 2425
	0x0050:  2627 2829 2a2b 2c2d 2e2f 3031 3233 3435
	0x0060:  3637
01:52:05.377392 IP ubuntu > 192.168.1.35: ICMP echo request, id 15, seq 2, length 64
	0x0000:  000c 2958 858f 000c 2927 87a7 0800 4500
	0x0010:  0054 279e 4000 4001 8f75 c0a8 0122 c0a8
	0x0020:  0123 0800 2d1e 000f 0002 b5dc 405f 0000
	0x0030:  0000 10c2 0500 0000 0000 1011 1213 1415
	0x0040:  1617 1819 1a1b 1c1d 1e1f 2021 2223 2425
	0x0050:  2627 2829 2a2b 2c2d 2e2f 3031 3233 3435
	0x0060:  3637
01:52:05.377796 IP 192.168.1.35 > ubuntu: ICMP echo reply, id 15, seq 2, length 64
	0x0000:  000c 2927 87a7 000c 2958 858f 0800 4500
	0x0010:  0054 6b67 0000 8001 4bac c0a8 0123 c0a8
	0x0020:  0122 0000 351e 000f 0002 b5dc 405f 0000
	0x0030:  0000 10c2 0500 0000 0000 1011 1213 1415
	0x0040:  1617 1819 1a1b 1c1d 1e1f 2021 2223 2425
	0x0050:  2627 2829 2a2b 2c2d 2e2f 3031 3233 3435
	0x0060:  3637
01:52:06.401060 IP ubuntu > 192.168.1.35: ICMP echo request, id 15, seq 3, length 64
	0x0000:  000c 2958 858f 000c 2927 87a7 0800 4500
	0x0010:  0054 27fc 4000 4001 8f17 c0a8 0122 c0a8
	0x0020:  0123 0800 bac0 000f 0003 b6dc 405f 0000
	0x0030:  0000 811e 0600 0000 0000 1011 1213 1415
	0x0040:  1617 1819 1a1b 1c1d 1e1f 2021 2223 2425
	0x0050:  2627 2829 2a2b 2c2d 2e2f 3031 3233 3435
	0x0060:  3637
01:52:06.401420 IP 192.168.1.35 > ubuntu: ICMP echo reply, id 15, seq 3, length 64
	0x0000:  000c 2927 87a7 000c 2958 858f 0800 4500
	0x0010:  0054 6b68 0000 8001 4bab c0a8 0123 c0a8
	0x0020:  0122 0000 c2c0 000f 0003 b6dc 405f 0000
	0x0030:  0000 811e 0600 0000 0000 1011 1213 1415
	0x0040:  1617 1819 1a1b 1c1d 1e1f 2021 2223 2425
	0x0050:  2627 2829 2a2b 2c2d 2e2f 3031 3233 3435
	0x0060:  3637
01:52:07.425099 IP ubuntu > 192.168.1.35: ICMP echo request, id 15, seq 4, length 64
	0x0000:  000c 2958 858f 000c 2927 87a7 0800 4500
	0x0010:  0054 28e3 4000 4001 8e30 c0a8 0122 c0a8
	0x0020:  0123 0800 cb61 000f 0004 b7dc 405f 0000
	0x0030:  0000 6f7c 0600 0000 0000 1011 1213 1415
	0x0040:  1617 1819 1a1b 1c1d 1e1f 2021 2223 2425
	0x0050:  2627 2829 2a2b 2c2d 2e2f 3031 3233 3435
	0x0060:  3637
01:52:07.425405 IP 192.168.1.35 > ubuntu: ICMP echo reply, id 15, seq 4, length 64
	0x0000:  000c 2927 87a7 000c 2958 858f 0800 4500
	0x0010:  0054 6b69 0000 8001 4baa c0a8 0123 c0a8
	0x0020:  0122 0000 d361 000f 0004 b7dc 405f 0000
	0x0030:  0000 6f7c 0600 0000 0000 1011 1213 1415
	0x0040:  1617 1819 1a1b 1c1d 1e1f 2021 2223 2425
	0x0050:  2627 2829 2a2b 2c2d 2e2f 3031 3233 3435
	0x0060:  3637
01:52:09.537089 ARP, Request who-has 192.168.1.35 tell ubuntu, length 28
	0x0000:  000c 2958 858f 000c 2927 87a7 0806 0001
	0x0010:  0800 0604 0001 000c 2927 87a7 c0a8 0122
	0x0020:  0000 0000 0000 c0a8 0123
01:52:09.537573 ARP, Reply 192.168.1.35 is-at 00:0c:29:58:85:8f (oui Unknown), length 46
	0x0000:  000c 2927 87a7 000c 2958 858f 0806 0001
	0x0010:  0800 0604 0002 000c 2958 858f c0a8 0123
	0x0020:  000c 2927 87a7 c0a8 0122 0000 0000 0000
	0x0030:  0000 0000 0000 0000 0000 0000

